:020000040800F2
:10000000D0050020A1010008631F0008711D000831
:10001000611F0008A90800083D2400080000000036
:10002000000000000000000000000000671F000842
:10003000AB08000800000000651F0008691F0008E9
:10004000BB010008BB010008BB010008BB010008A0
:10005000BB010008BB010008BB010008BB01000890
:10006000BB010008BB010008BB010008BB01000880
:10007000BB010008BB010008BB010008BB01000870
:10008000BB010008BB010008BB010008BB01000860
:10009000BB010008BB010008BB010008BB01000850
:1000A000BB010008BB010008BB010008BB01000840
:1000B000BB01000815200008BB010008BB010008B7
:1000C000BB010008BB010008BB010008BB01000820
:1000D000BB01000831240008BB010008BB01000877
:1000E000BB010008BB010008BB010008BB01000800
:1000F000BB010008BB010008BB010008BB010008F0
:10010000BB010008BB010008BB010008BB010008DF
:10011000BB010008BB010008BB010008BB010008CF
:10012000BB010008BB010008BB010008BB010008BF
:10013000BB010008BB010008BB010008BB010008AF
:10014000BB010008BB010008BB010008BB0100089F
:10015000BB010008BB010008BB010008BB0100088F
:10016000BB010008BB010008BB010008BB0100087F
:10017000BB010008BB010008BB0100080000000033
:10018000BB010008BB010008DFF810D000F05AFBEB
:10019000004800471D5E0008AFF30080D005002036
:1001A0000648804706480047FEE7FEE7FEE7FEE711
:1001B000FEE7FEE7FEE7FEE7FEE7FEE705200008B4
:1001C000890100082DE9F05F0546002092469B4614
:1001D00088460646814640241BE02846414647465D
:1001E000224600F096F953465A46C01A914110D360
:1001F00011461846224600F07DF92D1A67EB0108DA
:100200004F4622460120002100F074F917EB000947
:100210004E41201EA4F10104DFDC484631462A4647
:100220004346BDE8F09FD2B201E000F8012B491E21
:10023000FBD270470022F6E710B513460A46044683
:100240001946FFF7F0FF204610BD2DE9F047914613
:100250000F4680460446002614F8015B2DB100F0DD
:1002600069F90068405DC007F6D12B2D02D02D2D15
:1002700018D0641E4A463946204600F05FF927B17F
:100280003968A14201D1C7F8008071054FF002041E
:100290000BD54042002803DD02F006F90460A007F8
:1002A000BDE8F08746F48066E4E70028F8DA02F05B
:1002B000FBF804606FF00040F2E72DE9FE4F81EAA1
:1002C000030404F0004421F0004100944FF0000BBF
:1002D00023F0004350EA01045ED052EA03045BD0ED
:1002E000C3F30A54C1F30A552C44A4F2F334019425
:1002F000A0FB0254C1F3130141F48011C3F31303B3
:1003000043F4801301FB024400FB034E840A970A66
:1003100044EA815447EA8357A4FB076802958D0A93
:1003200005FB07854FEA932C04FB0C542705029D1F
:100330004FEA065847EA1637B5EB08056EEB070C8F
:10034000870E920E47EA811742EA8312A7FB020149
:10035000B6EB0B0164EB00042B0D43EA0C335E1883
:1003600044EB1C50DA465146E7FB0201C5F3130487
:100370004FEA0B3343EA14534FEA0432019C43EA39
:100380000603A4F10C040294009CCDE900B400F033
:1003900033F903B0BDE8F08F00200146F9E72DE9FD
:1003A000F04D81EA030404F0004B21F000451446AF
:1003B0004FF0000A23F0004150EA050220D054EA31
:1003C00001021DD0C5F30A570246C5F31303C1F35A
:1003D0001300C1F30A5640F4801543F48013A7EBD1
:1003E0000608101BD64608F2FD3873EB050002D351
:1003F00008F1010801E092185B41B8F1000F03DA3F
:1004000000200146BDE8F08D00204FF48011064623
:1004100084460EE0171B73EB050705D3121B63EB35
:10042000050306434CEA010C49084FEA30009218D4
:100430005B4150EA0107EDD152EA030012D082EA93
:10044000040083EA0501084305D0101BAB4106D226
:100450000122002306E000224FF0004302E06FF08B
:10046000010253101AEB06004CEB085110EB0A0086
:1004700041EB0B01BDE8F04D00F0AFB80EB540F216
:10048000334102910021CDE900110A460B4600F0EC
:10049000B3F803B000BDC1F30A5210B5C1F31301A4
:1004A00040F2FF3341F480119A4201DA002010BD7E
:1004B00040F233439A42A2F2334203DC524200F04C
:1004C00028F810BD904010BD30B50B460146002005
:1004D0002022012409E021FA02F59D4205D303FA06
:1004E00002F5491B04FA02F52844151EA2F1010287
:1004F000F1DC30BD202A04DB203A00FA02F10020B2
:1005000070479140C2F1200320FA03F31943904051
:100510007047202A04DB203A21FA02F000217047BC
:1005200021FA02F3D040C2F120029140084319465B
:1005300070470000004870477C9200082DE9F05F8A
:1005400082460078002715468B460AF10104B94619
:10055000302801D09DB113E014F8010B0127782851
:1005600003D0582801D045B10AE00DB1102D07D1B4
:100570000027102514F8010B02E0082500E00A25E9
:100580000026B0460EE005FB080005FB06F101273A
:1005900001EB10461FFA80F8B6F5803F00D3B9464C
:1005A00014F8010B294600F071F90028EBDABBF1D1
:1005B000000F05D00FB1641E00E05446CBF8004098
:1005C000B9F1000F06D001F06FFF02210160C81ED3
:1005D000BDE8F09F48EA0640FAE710B5141E73F133
:1005E000000408DA401C41F1000192185B411A43F3
:1005F00001D120F0010010BD2DE9F04D92469B463F
:1006000011B1B1FA81F202E0B0FA80F220329046E4
:10061000FFF770FF04460F4640EA0A0041EA0B016B
:1006200053465A46084313D0114653EA010019D0E5
:10063000C8F140025046FFF76CFF05460E46504693
:1006400059464246FFF756FF084305D0012004E013
:1006500020463946BDE8F08D0020054346EAE076A5
:100660002C4337430A986305E40AA0EB08000022F4
:10067000FD0A44EA47540A3002D500200146E9E762
:10068000010510196941DDE9084500196941BDE816
:10069000F04DA2E72DE9FE4F804681EA0300C00F2E
:1006A0000C46009021F0004123F00045B8EB020019
:1006B000A94105D24046214690461C460B460246BB
:1006C00023F00040104347D0270DC7F30A00C3F3BF
:1006D0000A510290401A019040286BDAC3F31300CC
:1006E00040F4801B0098924620B10023D2EB030A0D
:1006F00063EB0B0B01985946C0F140025046FFF7DF
:10070000F9FE06460D4650465946019A00F0ACF8EF
:1007100010EB08006141002487EA115284EAE77374
:100720001A4340D0009A62B3019A012A4FEA075255
:1007300015DC001B61EB02014FF0004202EA075298
:10074000CDE90042001C41F5801132462B46FFF7EF
:1007500053FF03B0BDE8F08F40462146F9E7001B88
:1007600061EB0201001C41F5801300185B41201869
:10077000A2F5001747EB030140EAD570B6196D41A9
:1007800011E06D084FEA360645EAC0754FEA075298
:10079000001B61EB0201001C41F5801149084FEA82
:1007A00030000019514132462B4603B0BDE8F04FEE
:1007B000FFF713BF0098012240000023D0EB020294
:1007C00063EBE073009821464FEAE074B8EB000059
:1007D00061EB0401E9E783F000435BE781F000414E
:1007E00058E7C1F30A52C1F3130140F2FF3341F459
:1007F00080119A4202DA00200146704740F23343EA
:100800009A42A2F2334202DC5242FFF782BEFFF765
:1008100071BE000030B5041E71F1000404DB4FF01E
:100820000044404264EB0101141E73F1000405DB37
:100830001C464FF00043524263EB0403994208BF49
:10084000904230BD064C074D06E0E06840F00103E1
:1008500094E8070098471034AC42F6D3FFF798FCB1
:1008600080920008A0920008202A06DBCB17203ACD
:1008700041FA02F043EAE07306E041FA02F3D040A5
:10088000C2F1200291400843194670473A2800D22D
:10089000303820F02002412A01D3A2F137008842EB
:1008A00001D34FF0FF307047FEE7704772B6FEE7A6
:1008B00030B5B3F5804F05D06FF0704140F822108D
:1008C000002030BD8C690B688D6823434C68898992
:1008D000240144EA0524234343EA014150F822302D
:1008E000014C23401943E9E70000F0CF10B50A6836
:1008F00050F8223023F0010340F822308C68082C95
:1009000023D000234A682243CC681C430B6922434E
:100910001A434B690E4C1A43CB691A430B6A1A43AC
:100920004B6A1A438B6A1A43CB6A1A430B6B1A43FE
:100930008B691343CA6B09681A4350F82130A343EB
:10094000134340F82130002010BD4023DAE70000B7
:100950007FFF0F0030B5D1E9003443EA04138C68FF
:100960008D89240244EA054423430C8A094D00EB97
:10097000820005EB045423430C7D6D0105EB0464F8
:10098000896923430B43416801F040410B434360B5
:10099000002030BD0000F0FF2DE9F0410446876DD6
:1009A00000F0BEF9064694F835000025022806D06E
:1009B0008020606584F834500120BDE8F081206813
:1009C000016821F0160101602068416921F0800171
:1009D0004161206C08B9A06C20B12068016821F049
:1009E000080101602068016821F0010101600CE04C
:1009F00000F096F9801B052807D9202060650320A8
:100A000084F8350084F83450D7E720680068C007C0
:100A1000EED194F85C103F208840B860012084F843
:100A2000350084F834500020C7E790F835100229CB
:100A300003D08021416501207047052180F83510E1
:100A40000068016821F0010101600020704700008A
:100A500070B5044600F064F90546601C02D00448F5
:100A60000078044400F05CF9401BA042FAD370BD4A
:100A7000380000202DE9F04186B014216846FFF7C8
:100A8000D9FB20480168002939D1012101601E48A5
:100A90000024016841F00101016000684FF48058B2
:100AA00000F001000C27CDF80080CDE9047003268A
:100AB00002250396CDE901546946144800F02EF84A
:100AC0004FF68070CDE9000502AA694682E8D000A1
:100AD0000F4800F023F84CF23370CDE9000502AA6C
:100AE000694682E8D0000B4800F018F802AA69466F
:100AF00082E8D000CDE90085074800F00FF806B085
:100B0000BDE8F08130000020383802400014024077
:100B100000100240000C0240001802402DE9F84F7E
:100B2000DFF8BCA10022012503264FF00F090AF1CE
:100B3000040BAAF1040E00BF0B6805FA02F423406F
:100B4000A34270D10F7907F00307012F01D0022FC4
:100B500016D187684FEA420806FA08FC27EA0C0714
:100B6000D1F80CC00CFA08FC4CEA070CC0F808C01D
:100B70004768A7430C79C4F3001494403C43446095
:100B80000C79E443A4070AD0C4684FEA420C06FA81
:100B90000CF7BC438F6807FA0CF72743C7600C7942
:100BA00004F00304022C12D1D40800EB840CDCF80E
:100BB00020405707FF0E09FA07F824EA0804D1F885
:100BC000108008FA07F848EA0408CCF82080046886
:100BD0004FEA420C06FA0CF7BC430F7907F0030703
:100BE00007FA0CF7274307604C6814F4403F70D0B5
:100BF0003C4C276847F480472760246822F00307AD
:100C000004F480440094384C07EB040CDCF80848EA
:100C100097074FEA177809FA08F7BC43334FB842F1
:100C200002D1002724E054E0314FB84201D101271E
:100C30001EE0304FB84201D1022719E02E4FB842D2
:100C400001D1032714E02D4FB84201D104270FE052
:100C50002B4FB84201D105270AE02A4FB84201D1F3
:100C6000062705E0284FB84201D1072700E00827F2
:100C700007FA08F72743CCF80878DAF80040574617
:100C8000D1F804C09C435FEACC2C00D51C433C60E7
:100C9000DBF800405F46D1F804C09C435FEA8C2C2F
:100CA00000D51C433C60DEF800407746D1F804C014
:100CB0009C435FEA8C3C00D51C433C60084F083FD6
:100CC0003C68D1F804C09C435FEACC3C00D51C438F
:100CD0003C60521C102AFFF42FAFBDE8F88F0000D3
:100CE000083C01404438024000300140000002400E
:100CF0000004024000080240000C024000100240C4
:100D00000014024000180240001C02400069084024
:100D100000D0012070470AB1816170470904FBE7E8
:100D20000148806870470000380000200248816850
:100D30000278114481607047380000200B4810B5DC
:100D4000016841F400710160016841F48061016053
:100D5000016841F480710160032000F06FF80F20FA
:100D600000F006F800F024F8002010BD003C02401E
:100D700070B50D4D04464FF47A712878B1FBF0F050
:100D80000A490968B1FBF0F000F03AFB48B9102CB1
:100D900007D200222146501E00F030F800206C607F
:100DA00070BD012070BD000038000020440000200C
:100DB0000A4808B5016841F480410160006800F408
:100DC000804000900548001F016841F0805101609B
:100DD000006800F08050009008BD000044380240D8
:100DE000002809DB00F01F0201219140400980002A
:100DF00000F1E020C0F8001170470000F0B40E4B85
:100E00001B680C46C3F30223C3F10705042D00D968
:100E10000425191D072901D2002300E0DB1E01264D
:100E200006FA05F1491E214099409E40761E164063
:100E30003143F0BC01F028BB0CED00E0064900F0A6
:100E4000070208684FF6FF03184040EA0220034AF1
:100E500010430860704700000CED00E00000FA0548
:100E60002DE9F0470E46050065D0DFF81481D8F86B
:100E70000000F7B200F00700B04207D288F8007017
:100E8000D8F8000000F00700B04254D128683D4C6B
:100E9000810712D5400703D5206840F4E050206058
:100EA0002878000703D5206840F46040206020685F
:100EB000A96820F0F000084320602878C0072DD0F2
:100EC000304968680839012812D0022813D0032855
:100ED00011D00968890700292DDA216821F0030162
:100EE00001432160FFF71CFF814641F2883A0EE082
:100EF00009688903EFE709688901ECE7FFF710FF4C
:100F0000A0EB0901514502D90320BDE8F087206814
:100F1000696800F00C00B0EB810FEFD1D8F8001039
:100F2000404601F00701B14207D90770006800F0A0
:100F30000700B04201D00120E7E72878400705D537
:100F40002068E96820F4E050084320602878000712
:100F500006D52068296920F4604040EAC10020607D
:100F600000F038F82168084AC1F30311515CC84009
:100F70000649086006480068FFF7FAFE0020C4E74B
:100F8000003C024008380240E29100084400002082
:100F90003C0000200448054900680968044AC1F380
:100FA0008221515CC840704744000020083802404C
:100FB000F29100080448054900680968044AC1F331
:100FC0004231515CC840704744000020083802405C
:100FD000F2910008154810B5006810F00C02144892
:100FE00013D04110042A0FD0082A0ED10F4C241F11
:100FF0002268236802F03F025B0207D52068C0F335
:101000008810A0FB010106E0084610BD2168C1F36D
:101010008811A1FB00010023FFF7D4F82168C1F378
:101020000141491C4900B0FBF1F010BD08380240F5
:101030000024F4002DE9F84F04006ED02078DFF88A
:101040004C93C007A9F104054AD009F104000168D6
:10105000C1F38101012908D00068C0F38100022892
:101060000AD1D9F80000400206D52868800337D598
:1010700060680028E1D033E06068B0F5803F10D0B0
:10108000B0F5A02F286810D020F4803028602868A0
:1010900020F4802028606068A8B1FFF741FE064672
:1010A0000DE0286840F48030F4E740F480202860A8
:1010B000F7E700BFFFF734FE801B642873D8286869
:1010C0008003F7D50CE0FFF72BFE064605E000BFD6
:1010D000FFF726FE801B6428F0D828688003F7D429
:1010E0002078DFF8AC8280074FF0000A3ED5A74891
:1010F000001D016811F00C0F08D00068C0F38100DA
:1011000002280BD1D9F80000400207D428688007D4
:1011100016D5E068012800D112E033E1E068B8B1EB
:101120000120C8F80000FFF7FBFD064605E000BF00
:10113000FFF7F6FD801B0228C0D828688007F7D586
:101140002868216920F0F80040EAC10028600DE01D
:10115000C8F800A0FFF7E4FD064604E0FFF7E0FD55
:10116000801B02281FD828688007F7D42078000742
:1011700022D5864F87486169703771B101210160BE
:10118000FFF7CEFD064604E0FFF7CAFD801B0228EC
:1011900009D838688007F7D50EE0C0F800A0FFF73F
:1011A000BFFD064605E082E0FFF7BAFD801B02287E
:1011B0007DD838688007F7D42078400768D5DFF8F5
:1011C000CCB100270BF13C0BDBF80000C0000BD4C6
:1011D000DBF8001041F08051CBF80010DBF8000084
:1011E000012700F0805000906B4E3068C00510D48D
:1011F000306840F480703060FFF792FD009005E0A9
:10120000FFF78EFD0099401A022850D83068C005BB
:10121000F6D55E4EA0686C3601280FD005283068E0
:1012200010D020F001003060306820F00400306001
:10123000A068B8B1FFF774FD00900FE0306840F08F
:101240000100F4E740F004003060F7E7FFF768FDC5
:101250000099411A41F28830814266D8306880078F
:10126000F4D50EE0FFF75CFD009007E0FFF758FDB6
:101270000099411A41F28830814256D8306880077F
:10128000F4D42FB1DBF8001021F08051CBF800101E
:10129000A069C8B33D49091D0968C1F3810102294C
:1012A0004AD00228504607D0C8F8600000E03CE071
:1012B000FFF736FD04463BE04746C8F86000FFF7FD
:1012C0002FFD064605E000BFFFF72AFD801B022820
:1012D0002BD828688001F7D4D4E907010843A16A14
:1012E0002E4A490802EB0141626A41EA8211084331
:1012F00094F82C1040EA0161C9F80010012038660A
:10130000FFF70EFD044606E03EE000BFFFF708FDD4
:10131000001B022809D828688001F7D534E000BFF7
:10132000FFF7FEFC001B022802D90320BDE8F88F5E
:1013300028688001F4D427E00128F7D0D9F800000C
:10134000E26900F4800191421CD1226A00F03F0161
:10135000914217D147F6C071626A0140B1EB821F1A
:1013600010D1A26A4FF0FF3300F4403103EB520278
:10137000B1EB024F06D194F82C1000F07060B0EB86
:10138000016F01D00120D1E70020CFE704380240EF
:1013900000004742800E4742007000400000FFFFFF
:1013A00070B515460E46040003D094F8490010B1FC
:1013B00007E0012070BD002084F84800204600F0BE
:1013C0001DF804F108012068FFF790FA3146A26881
:1013D0002068FFF7BFFAD4E901022946236BFFF723
:1013E00067FA2168A06851F8202042F0010241F814
:1013F0002020012084F84900002070BDFFF73ABB8F
:1014000010B5401EB0F1807F01D3012010BD4FF018
:10141000E02460610F21601701F036F80020A06120
:1014200007202061002010BD7047704770B590F80C
:101430003C20012A32D0012480F83C40022280F86E
:101440003D2003685A689D6822F070060A6832439E
:101450005A60134B02689A4214D0B2F1804F11D0F7
:10146000104B9A420ED0104B9A420BD00F4B9A421F
:1014700008D00F4B9A4205D00E4B9A4202D00E4B29
:101480009A4204D1496825F080031943916080F89D
:101490003D40002180F83C10084670BD022070BD20
:1014A000000001400004004000080040000C004023
:1014B00000040140004001400018004010B5040045
:1014C00003D094F83D0010B107E0012010BD0020CA
:1014D00084F83C00204600F01FF8022084F83D000C
:1014E000211D206800F09CFD012084F8460084F84E
:1014F0003E0084F83F0084F8400084F8410084F8FE
:10150000420084F8430084F8440084F8450084F8DD
:101510003D00002010BD000008B500680B4988425E
:1015200012D10B48016841F00201016000680022FD
:1015300000F00200009011461D20FFF75FFCBDE89F
:1015400008401D20FFF74CBC08BD0000000400400F
:101550004038024090F83D10012901D00120704729
:10156000022180F83D100168CA6842F00102CA6099
:1015700000681149884214D0B0F1804F11D00F4952
:1015800088420ED00E4988420BD00E49884208D0BE
:101590000D49884205D00D49884202D00C49884245
:1015A00004D1816801F00701062903D0016841F0E8
:1015B000010101600020704700000140000400406C
:1015C00000080040000C00400004014000400140C1
:1015D0000018004070B5044690F83C000025012832
:1015E00017D0012684F83C60022084F83D00206872
:1015F000826822F0770222F47F42826008685028D5
:1016000038D00DDC20284FD005DC90B3102811D144
:101610004AE0022070BD302846D040280AD13BE085
:1016200060282FD070280DD0B0F5805F03D0B0F5C2
:10163000005F12D0012584F83D60002084F83C0052
:10164000284670BDCB68D1E90121206800F04CFD2F
:101650002068816841F0770109E0CB68D1E9012178
:10166000206800F041FD2068816841F4804181607C
:10167000E1E719E0CA684968206800F047FD502199
:10168000206806E0CA684968206800F050FD6021C3
:10169000206800F033FDCEE7CA684968206800F092
:1016A00035FD40212068F4E7226801461046F0E746
:1016B000704770B50446006801694FF00005C943E2
:1016C000890715D4C168C943890711D4E91E01618E
:1016D00001202077206880698007204602D0FFF72C
:1016E000E7FF04E000F098F8204600F096F8257730
:1016F00020680169C943490717D4C168C94349072C
:1017000013D46FF004010161022020772068806902
:1017100010F4407F204602D0FFF7CAFF04E000F03B
:101720007BF8204600F079F8257720680169C943E5
:10173000090716D4C168C943090712D46FF008011C
:101740000161042020772068C0698007204602D00C
:10175000FFF7AEFF04E000F05FF8204600F05DF810
:10176000257720680169C943C90617D4C168C943F0
:10177000C90613D46FF0100101610820207720689A
:10178000C06910F4407F204602D0FFF791FF04E0CB
:1017900000F042F8204600F040F825772068016903
:1017A000C943C90708D1C168C943C90704D1891E03
:1017B0000161204600F032F820680169C94309063A
:1017C00009D4C168C943090605D46FF080010161DD
:1017D0002046FFF729FE20680169C943490609D45C
:1017E000C168C943490605D46FF040010161204634
:1017F00000F068F820680169C94389060BD4C16804
:10180000C943890607D46FF0200101612046BDE875
:101810007040FFF70ABE70BD7047704770B5006832
:101820002549264C884215D1254D10212846FFF721
:101830006DFA00B10120607008212846FFF766FAB2
:1018400000B10120A07104212846FFF75FFA00B122
:101850000120E07200210B465FF0010501EB8100E1
:10186000225C22B1012A07D0022A1FD10CE0021902
:101870005278DAB9255419E0021952780AB1235482
:1018800014E00222225411E002195678012E07D0EA
:10189000D078401CC0B2D0701E2807D9157104E062
:1018A0002354D078282800D29570D370491CC9B22F
:1018B0000329D3D370BD0000000400405000002075
:1018C000001002407047704770470000F8B501688B
:1018D00004460868CA684B6910F00F0F4FF0000506
:1018E00059D003F0010602F49077374365D0C10761
:1018F00005D0D10503D5216C41F0010121644107D8
:1019000005D5D90703D0216C41F00201216481077C
:1019100005D5D90703D0216C41F0040121640107EA
:1019200007D502F02001314303D0216C41F00801BA
:101930002164216C00293AD0800604D5900602D596
:10194000204600F035FC20684069216CC0F380100F
:10195000090700D460B3204600F003FC206840690A
:10196000400621D52068143050E8001F21F04001C6
:1019700040E80012002AF5D1A06BA8B16C490165BE
:10198000A06BFFF752F8002811D0A06B016D01B0D9
:10199000BDE8F040084783060FD593060DD52046D5
:1019A000BDE8F84000F004BC2046FFF78DFFF8BD0D
:1019B0002046FFF789FF2564F8BD266B2023012E02
:1019C00079D1C60677D5D60675D5086848680090DF
:1019D0004869400640D5A16B086840680004000CC7
:1019E000EAD0A28D8242E7D9E085C869B0F5807F50
:1019F0002DD020680C3050E8001F21F4807140E8A1
:101A00000012002AF5D12068143050E8001F21F0A0
:101A1000010140E80012002AF5D12068143050E896
:101A2000001F21F0400140E80012002AF5D184F89F
:101A30003E30256320680C3050E8001F21F0100173
:101A400040E80012002AF5D1A06BFEF7A5FFA08D9B
:101A5000E18D401A81B229E0A08DE18D401A81B25A
:101A6000E08D0028A8D00029A6D020680C3050E8CE
:101A7000002F22F4907240E80026002EF5D1206855
:101A8000143050E8002F22F0010240E80026002E1A
:101A9000F5D184F83E30256320680C3050E8002FE3
:101AA00022F0100240E80023002BF5D12046FFF77A
:101AB0000AFFF8BDFFE705062BD5150629D594F8D2
:101AC0003D002128F5D1A068B0F5805F01D12069E3
:101AD000B0B1206A411C2162216800784860E08C26
:101AE000401E0004000CE084E3D12068C16821F0AE
:101AF0008001C1602068C16841F04001C160D8E741
:101B0000206A0088C0F308004860206A801C2062B8
:101B1000E5E74006CDD55006CBD5CA68204622F071
:101B20004002CA6084F83D3000F021F9C1E70000AE
:101B30005321000870B5040004D094F83D0000253E
:101B400010B106E0012070BD84F83C50204600F042
:101B500023F8242084F83D002068C16821F4005156
:101B6000C160204600F084FB2068016921F49041A7
:101B700001612068416921F02A0141612068C16842
:101B800041F40051C1602564202084F83D0084F8B0
:101B90003E00002070BD000010B586B00446142140
:101BA0006846FEF747FB18492068884229D1174844
:101BB0000021026842F010020260006800F010008C
:101BC000059012481438026842F001020260006871
:101BD00000F0010005904FF4C06000900220CDE9B4
:101BE0000101032003900720049069460848FEF78E
:101BF00095FF002211462520FFF700F92520FFF769
:101C0000EFF806B010BD000000100140443802405B
:101C10000000024090F83E30202B0ED159B152B155
:101C200090F83C30012B08D0012380F83C30002391
:101C3000036300F0A3BB012070470220704700003F
:101C400038B50068194988422FD1194C0025194828
:101C5000A278AD2A0AD02178F9B1E1884254491C12
:101C600089B2E180202906D3257015E00121217079
:101C70000270E18011E0407888420ED10C48257056
:101C80001030031F1A1F0090511F0A4804F0A0FAD9
:101C900020210848FEF7CEFAE580BDE83840044927
:101CA0000122891C0448FFF7B5BF38BD0010014070
:101CB00008000020D20000208C0100202DE9F8430C
:101CC000044690F83D001F4616460D4620284CD18C
:101CD000C5B1BEB194F83C00012846D0012084F87B
:101CE0003C004FF00008C4F84080212084F83D00FB
:101CF000FFF716F8A6848146E684A068B0F5805FF9
:101D000003D004E00120BDE8F883206928B12E4605
:101D10005FF0000584F83C800EE00026FAE78021A1
:101D2000204600F048FBA0B9AEB116F8010B2168BF
:101D30004860E08C401EE084E08C4B464FF000028F
:101D400000970028EBD14FF04001204600F033FB14
:101D500030B10320D7E735F8020BC0F30800E6E7FF
:101D6000202084F83D000020CDE70220CBE770471B
:101D7000FEE7000010B58EB01C216846FEF75AFA47
:101D80001C2107A8FEF756FA1A484FF020411022EE
:101D9000016019494160062181600021C160C0E9EC
:101DA00004128161C16113020162C0E90913930247
:101DB000C0E90B134163816341640F203C23009011
:101DC000CDE9010303AC112384E80E000924069138
:101DD000CDE907400AA8099480E80E000D9107AAF2
:101DE00069460448FFF7DCFA002801D0FEF75EFDE3
:101DF0000EB010BDF4000020040100A070B586B044
:101E000014216846FEF716FA2A480024016841F0BA
:101E100010010160016801F010010591016841F0B5
:101E200080010160016801F080010591016841F0C5
:101E300020010160016801F020010591016841F075
:101E400002010160016801F002010591016841F0A1
:101E500008010160016801F008010591016841F085
:101E600001010160016801F001010591016841F083
:101E7000400101600068104E00F040004FF4004542
:101E80000590002229463046FEF745FF1C20CDE98B
:101E90000004694609480294FEF740FE01200095BF
:101EA000CDE90104694630460394FEF737FE06B0DB
:101EB00070BD0000303802400004024000100240B3
:101EC00010B586B00024174800940194029403943E
:101ED00004941349059401605321C0E9011442F2AE
:101EE0000F71C0E9031480218161FFF7E7FA08B19F
:101EF000FEF7DCFC4FF48050009069460948FFF77C
:101F000069FB08B1FEF7D2FC049404A905480594C6
:101F1000FFF78CFA002801D0FEF7C8FC06B010BD10
:101F200000040040440100200C4810B50A4901603B
:101F30004FF4E1314160002181600C22C160C0E9B1
:101F400004128161C161FFF7F5FD002803D0BDE8EF
:101F50001040FEF7ABBC10BD001001408C0100200A
:101F6000FEE7FEE770477047FEF7E0BE30B593B07E
:101F700030216846FEF75EF914210CA8FEF75AF9E5
:101F80001E480025016841F080510160006800F0A2
:101F9000805011901A48016841F480410160006846
:101FA000022400F480401190012000900004019070
:101FB0008001CDE90640082008904FF4A870CDE9D3
:101FC000090404200B906846FFF734F808B172B694
:101FD000FEE70CA90F2081E831004FF4A0500F90CC
:101FE0004FF48050109005210CA8FEF739FF00280F
:101FF00001D072B6FEE713B030BD00004038024099
:10200000007000400248016841F4700101607047AF
:1020100088ED00E00148FFF74CBB000044010020C0
:10202000F0B50268254C264D264E274F274B4FF022
:10203000804CA04209D0604507D0A84205D0B042EC
:1020400003D0B84201D0984204D122F0700E4A6801
:1020500042EA0E02A0421BD0604519D0A84217D018
:10206000B04215D0B84213D0984211D0184DA842B2
:102070000ED0184DA8420BD0174DA84208D0174DCE
:10208000A84205D0164DA84202D0164DA84203D151
:1020900022F44075CA682A434D6922F080022A431F
:1020A00002608A68C2620A688262A04201D09842D5
:1020B00001D10969016301214161F0BD00000140C6
:1020C0000004004000080040000C004000040140F3
:1020D0000040014000440140004801400018004019
:1020E000001C00400020004010B5846842EA032232
:1020F00024F47F440A432243826010BD826822F0A8
:1021000070020A4342F007018160704710B5036A0C
:10211000046A24F001040462846924F0F00444EAAF
:10212000021423F00A020A438461026210BD10B552
:10213000036A23F0100303628369046A23F4704383
:1021400043EA023224F0A00343EA011182610162F2
:1021500010BD10B5806B0021C185C184FFF7B4FBB1
:1021600010BD01680C3151E8002F22F4907241E853
:102170000023002BF5D10168143151E8002F22F023
:10218000010241E80023002BF5D1016B012909D19F
:1021900001680C3151E8002F22F0100241E80023C1
:1021A000002BF5D1202180F83E10002101637047FB
:1021B00008B590F83E10222901D0022008BD82689F
:1021C0004FF480539A4201D1016921B1816A9A4248
:1021D0001BD04AB10AE00268816A5268C2F3080261
:1021E0000A80816A891C08E0026972B1026852683B
:1021F00002F07F020A70816A491C8162C18D491E0A
:102200000904090CC18503D019E002685268F1E79E
:102210000168CA6822F02002CA600168CA6822F414
:102220008072CA6001684A6922F001024A61202175
:1022300080F83E10016B012903D0FFF701FD00205B
:1022400008BD0021016301680C3151E8002F22F024
:10225000100241E80023002BF5D101680A68D2067C
:1022600002D50A6849680091818DFFF72CFBE6E7EB
:1022700070B5044600680169E26821F440511143D9
:1022800001612169A068E26908436169114308435B
:102290002168CA6849F20C639A430243CA60206805
:1022A0004169A26921F440711143416131492068BB
:1022B000884202D03049884202D1FEF77BFE01E01D
:1022C000FEF768FEE2690023192164253226B2F583
:1022D000004F626828D0A0FB0101930F9200FDF728
:1022E00071FF0146B0FBF5F06FF01802504301EBAF
:1022F000800006EB0010B0FBF5F000F0F002B1FB3F
:10230000F5F002EB0012B1FBF5F06FF01803584343
:1023100001EB800006EB0010B0FBF5F000F00F00C1
:1023200021681044886070BDA0FB010192185B41D8
:10233000FDF748FF0146B0FBF5F00201B1FBF5F0F7
:102340006FF01803584301EB800006EBC000B0FBB0
:10235000F5F000F0F80002EB4002B1FBF5F0584355
:1023600001EB800006EBC000B0FBF5F000F00700C9
:10237000D6E7000000100140001401408162828510
:10238000C28500210164222280F83E2080F83C10A2
:10239000016921B10168CA6842F48072CA600168AB
:1023A0004A6942F001024A610068C16841F02001B7
:1023B000C160002070472DE9F041984617460E464F
:1023C0000446069D27E0681C25D02DB1FEF7A8FC29
:1023D000A0EB0800A8421ED920680C3050E8001F6E
:1023E00021F4D07140E80012002AF5D120681430A1
:1023F00050E8001F21F0010140E80012002AF5D149
:10240000202084F83D0084F83E00002084F83C0041
:102410000320BDE8F0812068006836EA000004D09F
:102420000020B842CFD00020F3E70120F9E70000F8
:102430000148FFF74BBA00008C010020FEE70000C6
:102440000FB4054B10B503A9044A029800F002F935
:1024500010BC5DF814FB0000652D0008480000204A
:102460000FB4084B10B504A902AA039800F0F2F8C3
:10247000044602A9002000F070FC204610BC5DF864
:1024800014FB00005B2D00080907090E002804DB7F
:1024900000F1E02080F80014704700F00F0000F118
:1024A000E02080F8141D7047004870474C00002061
:1024B00002E008C8121F08C1002AFAD1704770470D
:1024C000002001E001C1121F002AFBD1704700006B
:1024D0002DE9FF5F82B00021DDE90430020DDDF857
:1024E00040B0034318D044F61050A2F2FF324243EA
:1024F0001514119801281FD0A5EB0B00401C5FEAB2
:10250000000A4FF000064E4FDFF83891B0465046B3
:1025100015D5CAF1000413E0119801244AA301283B
:1025200001D16FEA0B010298119AC0E90031C0E9AC
:10253000024206B0BDE8F09FCBF10000DFE70446A1
:102540000021404A491842EB0450CDE9001012E046
:10255000E00707D032463B4640464946FDF7ADFE10
:102560008046894632463B4610461946FDF7A5FE91
:1025700006460F466410002CEAD1DDE90401DDE9CE
:102580000023BAF1000F06DAFDF797FE42464B46EC
:10259000FDF793FE05E0FDF702FF42464B46FDF7CF
:1025A000FEFE04460E460022284BFEF733F903D800
:1025B0004FF0FF30014607E00022254B2046314610
:1025C000FEF768F8FEF70DF9102409E0002C0ADB8D
:1025D0000A220023FDF7F6FD039B30321A55641ED4
:1025E00050EA0102F2D1641C039AC4F111031444AD
:1025F000119A012A03D0012208430DD10AE00843B1
:1026000004D000204FF0110B119072E7A3EB0B05E3
:102610006D1E0DE05B4504DD4FF0000205F1010584
:1026200004E003DA4FF00002A5F10105002AECD026
:1026300002981199C0E90231C0E9004579E700002C
:10264000000014400000F03F300000000000F043A4
:102650000000E03F2DE9FF4F95B09A4688460646B8
:102660000025EEE1252877D100242746F94A0121EB
:10267000039400E0044316F8013F203B01FA03F005
:102680001042F7D130782A2811D06FF02F0330781C
:10269000A0F13002092A16D8039A44F0020402EB92
:1026A000820203EB42021044761C0390EFE758F8D5
:1026B000042B0392002A03DA504244F4005403909E
:1026C00044F00204761C30782E2816D116F8010F3B
:1026D00044F004042A280DD06FF02F023078A0F1C6
:1026E0003003092B09D807EB870302EB4303C71814
:1026F000761CF3E758F8047B761C30786C280FD0F2
:1027000006DC4C2817D068280DD06A2814D104E0C4
:10271000742810D07A280FD10DE044F400140AE098
:1027200044F4801401E044F440147278824202D1EF
:1027300004F58014761C761C307866280BD013DCE8
:10274000582877D009DC002875D04528F6D04628CF
:10275000F4D047281AD193E118E0632835D06428D3
:1027600079D0652812D18BE1702873D008DC6728F6
:10277000F1D069286FD06E280DD06F2806D1ACE05B
:1027800073282CD0752874D0782853D052461799C6
:1027900090476D1C54E1C4F30250022809D003286D
:1027A0000DD0D8F8001004280DD00D6008F10408F1
:1027B00046E1D8F80010EA17C1E90052F6E7D8F868
:1027C00000100D80F2E70D70F0E718F8041B8DF88B
:1027D000001000208DF80100EB46012003E058F8BE
:1027E00004BB4FF0FF3061074FF0000102D40DE051
:1027F00009F101018946B9420FDA8145F8DB1BF87E
:1028000009100029F4D108E009F10101894681424B
:10281000FADB1BF809100029F6D103985346A0EB08
:10282000090721463846179A00F080FA284400EB41
:10283000090507E044E008E10DE01BF8010B5246F2
:1028400017999047B9F10109F7D253462146384606
:10285000179AF2E039E00A21C4F302524FF0000B5C
:102860000091022A06D058F8040BC117032A09D098
:102870000AE023E008F1070020F00702F2E8020175
:10288000904605E000B2C117042A01D140B2C11739
:10289000002906DA0A460021404261EB02012D229E
:1028A00002E0220504D52B228DF80420012203E04A
:1028B000E20701D02022F7E7914657E00A2100E025
:1028C00010214FF0000B00910BE010214FF0000B96
:1028D00044F004040827009103E008204FF0000BA7
:1028E0000090C4F30252022A05D058F8040B0021CC
:1028F000032A08D008E008F1070020F00702F2E8F8
:102900000201904603E080B2042A00D1C0B24FF029
:10291000000922072AD53278702A07D0DDF800C0D6
:102920008CF0100C5CEA0B0C05D00EE040228DF808
:102930000420012208E050EA010306D030238DF87C
:1029400004308DF8052002229146009B83F0080395
:1029500053EA0B030AD150EA010201D1620705D5FF
:1029600030228DF804204FF001097F1E3278582A5A
:1029700004D039A20C920CAA02920BE03BA2F9E718
:102980005B46009AFDF71EFC0C9B9B5C029A521E54
:102990000292137050EA0102F2D1029804A9081AB7
:1029A00000F1200B600702D524F4803400E00127F9
:1029B0005F4502DDA7EB0B0000E0002000EB0B0100
:1029C000009003984944401A0390E00306D453460C
:1029D0002146179A039800F0A9F90544002706E05C
:1029E00001A85246C05D179990476D1C7F1C4F454A
:1029F000F6DBE0030CD553462146179A039800F006
:102A000095F9054404E030205246179990476D1C13
:102A10000099481E00900029F5DC08E00298029910
:102A200052460078491C0291179990476D1CBBF1E2
:102A30000001ABF1010BF1DC5BE100F065F905444D
:102A4000761C307800287FF40DAE19B02846BDE81A
:102A5000F08F000009280100303132333435363729
:102A600038396162636465660000000030313233DA
:102A7000343536373839414243444546000000007A
:102A8000600700D4062708F1070020F00700F0E8EF
:102A90000223804603F0004C5FEA0C0001D097A0AF
:102AA00009E0200501D596A005E0E00701D095A03A
:102AB00001E0AFF24C001390307823F0004365281A
:102AC0000CD006DC452809D046281DD047287FD1E8
:102AD0003BE0662818D067287AD136E00021112F14
:102AE00001DB112000E0781CCDE9000104A90CA84D
:102AF000FFF7EEFCDDE90D010C9A4FF0000B07F13A
:102B00000109109200914EE04FF000400097CDE98E
:102B1000011004A90CA8FFF7DBFCDDE90D020C9BFA
:102B20000F994FF0000B91461093009211B9791C48
:102B300000EB0109B7EB090003D4C0F1FF3B07F13B
:102B40000109A9EB0700019042E0012F00DA0127FB
:102B50000021112F01DD112000E03846CDE90001F0
:102B600004A90CA8FFF7B4FCDDE90D010C9A009153
:102B70004FF0000BB946109221070FD4009A4A4536
:102B800003DA914601E0A9F10109B9F1010F05DD70
:102B9000109AA9F10101515C3029F4D0B84202DA4F
:102BA00010F1040F03DA0121CDE9011010E0002833
:102BB00003DC8344A9EB000102E0411C494500DD30
:102BC0008946A0EB0B00401C01904FF000400290A2
:102BD000200705D40198484502DB4FF0FF300190F3
:102BE00000208DF84B0002980DF14B07B0F1004F1B
:102BF00025D002200C902B200D90029800280CDA92
:102C0000404202902D200D9007E00A210298FDF726
:102C10005BFC3031029007F8011D0C99481E0C90A6
:102C20000029F2DC02980028EFD1791E0D98087077
:102C3000307800F0200040F0450007F8020D11A8A0
:102C4000C01BC01D02901398007800B1012000EB5A
:102C50000901019801EBE071029801440398401AC0
:102C6000401E0390E00306D453462146179A03986A
:102C700000F05CF805441398007818B15246179993
:102C800090476D1CE00323D553462146179A0398BD
:102C900000F04CF805441BE0BBF1000F07DB009887
:102CA000584504DD1098179910F80B0001E01799AA
:102CB00030205246904701980BF1010B401E05F160
:102CC0000105019004D12E205246179990476D1CA2
:102CD000B9F10001A9F10109DEDC05E017F8010BEB
:102CE0005246179990476D1C0299481E0290002980
:102CF000F4DC53462146179A03989EE62D00000007
:102D00002B000000200000002DE9F04104460025C2
:102D10001E461746880404D405E039462020B047F3
:102D20006D1C641EF9D52846BDE8F0812DE9F041FF
:102D3000044600251E469046C80301D5302700E012
:102D40002027880404D505E041463846B0476D1C6D
:102D5000641EF9D52846BDE8F0810A68531C0B6053
:102D60001070704713B54FF6FF7301226946024891
:102D7000FEF7A4FF00981CBD8C0100201049002222
:102D80000B79012B06D04B7A012B06D08B7B012BC4
:102D90000BD012E00A71012070474A7201880529A0
:102DA00001D3491F08E0002106E08A730188AF299A
:102DB00001D8491D00E0B4210180002070470000C7
:102DC0005000002070B50A490646002408884D8846
:102DD00021464543204602F0BDFE03F00FF84FF0B8
:102DE000D84002E0A0F88060641CAC42FAD370BD09
:102DF000B00000202DE9F04F38492C260A46887192
:102E000092884FF4305A4FF4285B41F6631E2B270B
:102E10004FF02A0C4FF0F00845F210594FF4487566
:102E20004FF4A0744FF4F07358B10C80A1F80280F5
:102E30004A4530D1A1F808A0A1F80AB0380288812B
:102E400041E0A1F800804C804A4507D1A1F808A0D4
:102E5000A1F80AB04FF42C50888105E072450E812C
:102E600005D14F81A1F80CC00B804D8002E0A1F884
:102E70000AC08F81A2F5A640103803D0A2F5EE401B
:102E8000963801D10C804B80A2F5184006381FD12E
:102E90000B804D801CE0724511D0A2F51840063819
:102EA0000DD00E81A1F80AC0A1F80C70A2F5A640C1
:102EB00010380BD0A2F5EE40963807D008E00E810E
:102EC000A1F80AC08F810D804B80EFE70B804C800A
:102ED000BDE8F04F002002F07BBD0000B0000020F4
:102EE00010B5144602F036FE02F088FF4FF0D840CD
:102EF000A0F8804010BD10B5CF2002F073FF002075
:102F000002F064FFC12002F061FF302002F05EFF9A
:102F1000ED2002F067FF642002F058FF032002F06A
:102F200055FF122002F052FF812002F04FFFE820EF
:102F300002F058FF852002F049FF102002F046FF02
:102F40007A2002F043FFCB2002F04CFF392002F040
:102F50003DFF2C2002F03AFF002002F037FF342022
:102F600002F034FF022002F031FFF72002F03AFFB6
:102F7000202002F02BFFEA2002F034FF002002F0B4
:102F800025FF002002F022FFC02002F02BFF1B20B3
:102F900002F01CFFC12002F025FF012002F016FF05
:102FA000C52002F01FFF302002F010FF302002F099
:102FB0000DFFC72002F016FFB72002F007FF3620F2
:102FC00002F010FF482002F001FF3A2002F00AFF51
:102FD000552002F0FBFEB12002F004FF002002F0B9
:102FE000F5FE1A2002F0F2FEB62002F0FBFE0A20E7
:102FF00002F0ECFEA22002F0E9FEF22002F0F2FE66
:10300000002002F0E3FE262002F0ECFE012002F098
:10301000DDFEE02002F0E6FE0F2002F0D7FE2A20BF
:1030200002F0D4FE282002F0D1FE082002F0CEFEED
:103030000E2002F0CBFE082002F0C8FE542002F061
:10304000C5FEA92002F0C2FE432002F0BFFE0A2006
:1030500002F0BCFE0F2002F0B9FE002002F0B6FE26
:10306000002002F0B3FE002002F0B0FE002002F0CB
:10307000ADFEE12002F0B6FE002002F0A7FE152012
:1030800002F0A4FE172002F0A1FE072002F09EFE2F
:10309000112002F09BFE062002F098FE2B2002F089
:1030A00095FE562002F092FE3C2002F08FFE052095
:1030B00002F08CFE102002F089FE0F2002F086FE46
:1030C0003F2002F083FE3F2002F080FE0F2002F03E
:1030D0007DFE2B2002F086FE002002F077FE00200D
:1030E00002F074FE012002F071FE3F2002F06EFE3D
:1030F0002A2002F077FE002002F068FE002002F095
:1031000065FE002002F062FEEF2002F05FFE11205B
:1031100002F068FE7820FDF79BFCBDE810402920F6
:1031200002F060BE10B5FF2002F05CFEFF2002F04E
:103130004DFE982002F04AFE062002F047FEBC2019
:1031400002F050FE012002F041FE0F2002F03EFE90
:10315000612002F03BFEFF2002F038FE012002F069
:1031600035FE012002F032FE0B2002F02FFE10206F
:1031700002F02CFE372002F029FE632002F026FE2A
:10318000FF2002F023FEFF2002F020FE012002F0CB
:103190001DFE012002F01AFE002002F017FE0020A2
:1031A00002F014FEFF2002F011FE522002F00EFE8B
:1031B000012002F00BFE002002F008FE402002F089
:1031C00005FEBD2002F00EFE012002F0FFFD2320CF
:1031D00002F0FCFD452002F0F9FD672002F0F6FD4B
:1031E000012002F0F3FD232002F0F0FD452002F063
:1031F000EDFD672002F0EAFDBE2002F0F3FD0020A5
:1032000002F0E4FD012002F0E1FDAB2002F0DEFD62
:10321000602002F0DBFD222002F0D8FD222002F027
:10322000D5FD222002F0D2FD222002F0CFFD222087
:1032300002F0CCFDC72002F0D5FD362002F0C6FD1D
:10324000ED2002F0CFFD7F2002F0C0FD0F2002F044
:10325000BDFDC02002F0C6FD0F2002F0B7FD0B201F
:1032600002F0B4FD0A2002F0B1FDFC2002F0BAFD2C
:10327000082002F0ABFDDF2002F0B4FD002002F0D8
:10328000A5FD002002F0A2FD002002F09FFD00201D
:1032900002F09CFD002002F099FD202002F096FD36
:1032A000F32002F09FFD742002F090FDB42002F0A4
:1032B00099FD002002F08AFD002002F087FD002029
:1032C00002F084FDF72002F08DFD822002F07EFDE9
:1032D000B12002F087FD002002F078FD132002F0FB
:1032E00075FD132002F072FDF22002F07BFD8020BC
:1032F00002F06CFD042002F069FD402002F066FD42
:10330000282002F063FDC12002F06CFD172002F0BE
:103310005DFD882002F05AFD882002F057FD202034
:1033200002F054FDE02002F05DFD002002F04EFDB1
:103330000A2002F04BFD122002F048FD102002F09E
:1033400045FD0E2002F042FD202002F03FFDCC2082
:1033500002F03CFD072002F039FD062002F036FDA8
:103360000B2002F033FD0E2002F030FD0F2002F0A2
:103370002DFD0D2002F02AFD152002F027FD102062
:1033800002F024FD002002F021FDE12002F02AFDE0
:10339000002002F01BFD0B2002F018FD132002F0AC
:1033A00015FD0D2002F012FD0E2002F00FFD1B2076
:1033B00002F00CFD712002F009FD062002F006FD6E
:1033C000062002F003FD0A2002F000FD0F2002F0AB
:1033D000FDFC0E2002F0FAFC0F2002F0F7FC152095
:1033E00002F0F4FC0C2002F0F1FC002002F0EEFCF4
:1033F0002A2002F0F7FC002002F0E8FC002002F096
:10340000E5FC012002F0E2FCDF2002F0DFFC2B20D3
:1034100002F0E8FC002002F0D9FC002002F0D6FC0B
:10342000032002F0D3FC1F2002F0D0FC3A2002F06F
:10343000D9FC552002F0CAFC362002F0D3FC002053
:1034400002F0C4FC112002F0CDFC7820FDF700FB57
:10345000292002F0C7FC1420FDF7FAFABDE810405D
:103460002C2002F0BFBC10B5ED2002F0BBFC012007
:1034700002F0ACFCFE2002F0A9FCEE2002F0B2FC4F
:10348000DE2002F0A3FC212002F0A0FCF12002F0DB
:10349000A9FC012002F09AFCDF2002F0A3FC10201E
:1034A00002F094FCC42002F09DFC8F2002F08EFC00
:1034B000C62002F097FC002002F088FCE22002F017
:1034C00085FCE22002F082FCE22002F07FFCBF20BB
:1034D00002F088FCAA2002F079FCB02002F082FC05
:1034E0000D2002F073FC002002F070FC0D2002F0B1
:1034F0006DFC002002F06AFC112002F067FC002045
:1035000002F064FC192002F061FC002002F05EFC75
:10351000212002F05BFC002002F058FC2D2002F07C
:1035200055FC002002F052FC3D2002F04FFC002030
:1035300002F04CFC5D2002F049FC002002F046FC49
:103540005D2002F043FC002002F040FCB12002F0BC
:1035500049FC802002F03AFC002002F037FC8B206E
:1035600002F034FC002002F031FC962002F02EFC28
:10357000002002F02BFCB22002F034FC002002F00C
:1035800025FC002002F022FC022002F01FFC00209B
:1035900002F01CFC032002F019FC002002F016FCD3
:1035A000B32002F01FFC002002F010FC002002F00B
:1035B0000DFC002002F00AFC002002F007FC0020B5
:1035C00002F004FC002002F001FC002002F0FEFBEF
:1035D000002002F0FBFB002002F0F8FB002002F0CC
:1035E000F5FB002002F0F2FB002002F0EFFB0020D0
:1035F00002F0ECFB002002F0E9FB002002F0E6FB09
:10360000002002F0E3FB002002F0E0FB002002F0CB
:10361000DDFB002002F0DAFB002002F0D7FB0020E7
:1036200002F0D4FB002002F0D1FB002002F0CEFB20
:10363000002002F0CBFBB42002F0D4FB8B2002F080
:10364000C5FB002002F0C2FB962002F0BFFB002069
:1036500002F0BCFBA12002F0B9FB002002F0B6FB97
:10366000B52002F0BFFB022002F0B0FB002002F008
:10367000ADFB032002F0AAFB002002F0A7FB042010
:1036800002F0A4FB002002F0A1FBB62002F0AAFB8E
:10369000002002F09BFB002002F098FBB72002F014
:1036A000A1FB002002F092FB002002F08FFB3F20E4
:1036B00002F08CFB002002F089FB5E2002F086FB0A
:1036C000002002F083FB642002F080FB002002F067
:1036D0007DFB8C2002F07AFB002002F077FBAC200F
:1036E00002F074FB002002F071FBDC2002F06EFBA4
:1036F000002002F06BFB702002F068FB002002F05B
:1037000065FB902002F062FB002002F05FFBEB20E3
:1037100002F05CFB002002F059FBDC2002F056FBBB
:10372000002002F053FBB82002F05CFB002002F006
:103730004DFB002002F04AFB002002F047FB002076
:1037400002F044FB002002F041FB002002F03EFBAF
:10375000002002F03BFB002002F038FBBA2002F010
:1037600041FB242002F032FB002002F02FFB00205E
:1037700002F02CFB002002F029FBC12002F032FBFA
:10378000202002F023FB002002F020FB542002F056
:103790001DFB002002F01AFBFF2002F017FB0020A7
:1037A00002F014FBC22002F01DFB0A2002F00EFB07
:1037B000002002F00BFB042002F008FB002002F0C6
:1037C00005FBC32002F00EFB3C2002F0FFFA0020B4
:1037D00002F0FCFA3A2002F0F9FA002002F0F6FAC0
:1037E000392002F0F3FA002002F0F0FA372002F05C
:1037F000EDFA002002F0EAFA3C2002F0E7FA00209D
:1038000002F0E4FA362002F0E1FA002002F0DEFADB
:10381000322002F0DBFA002002F0D8FA2F2002F06A
:10382000D5FA002002F0D2FA2C2002F0CFFA0020C4
:1038300002F0CCFA292002F0C9FA002002F0C6FA00
:10384000262002F0C3FA002002F0C0FA242002F081
:10385000BDFA002002F0BAFA242002F0B7FA0020E4
:1038600002F0B4FA232002F0B1FA002002F0AEFA1E
:103870003C2002F0ABFA002002F0A8FA362002F059
:10388000A5FA002002F0A2FA322002F09FFA0020EE
:1038900002F09CFA2F2002F099FA002002F096FA2A
:1038A0002C2002F093FA002002F090FA292002F076
:1038B0008DFA002002F08AFA262002F087FA002012
:1038C00002F084FA242002F081FA002002F07EFA4D
:1038D000242002F07BFA002002F078FA232002F084
:1038E00075FA002002F072FAC42002F07BFA62201E
:1038F00002F06CFA002002F069FA052002F066FA84
:10390000002002F063FA842002F060FA002002F046
:103910005DFAF02002F05AFA002002F057FA18205F
:1039200002F054FA002002F051FAA42002F04EFAFC
:10393000002002F04BFA182002F048FA002002F0B2
:1039400045FA502002F042FA002002F03FFA0C2023
:1039500002F03CFA002002F039FA172002F036FAA1
:10396000002002F033FA952002F030FA002002F035
:103970002DFAF32002F02AFA002002F027FAE620BE
:1039800002F024FA002002F021FAC52002F02AFAFF
:10399000322002F01BFA002002F018FA442002F054
:1039A00015FA002002F012FA652002F00FFA00204A
:1039B00002F00CFA762002F009FA002002F006FA72
:1039C000882002F003FA002002F000FAC62002F07C
:1039D00009FA202002F0FAF9002002F0F7F9172086
:1039E00002F0F4F9002002F0F1F9012002F0EEF902
:1039F000002002F0EBF9C72002F0F4F9002002F0F9
:103A0000E5F9002002F0E2F9002002F0DFF90020E1
:103A100002F0DCF9C82002F0E5F9002002F0D6F946
:103A2000002002F0D3F9002002F0D0F9002002F0CB
:103A3000CDF9C92002F0D6F9002002F0C7F9002024
:103A400002F0C4F9002002F0C1F9002002F0BEF932
:103A5000002002F0BBF9002002F0B8F9002002F0CB
:103A6000B5F9002002F0B2F9002002F0AFF9002011
:103A700002F0ACF9002002F0A9F9002002F0A6F94A
:103A8000002002F0A3F9002002F0A0F9002002F0CB
:103A90009DF9002002F09AF9E02002F0A3F9162027
:103AA00002F094F9002002F091F91C2002F08EF946
:103AB000002002F08BF9212002F088F9002002F0AA
:103AC00085F9362002F082F9002002F07FF94620C5
:103AD00002F07CF9002002F079F9522002F076F928
:103AE000002002F073F9642002F070F9002002F067
:103AF0006DF97A2002F06AF9002002F067F98B2054
:103B000002F064F9002002F061F9992002F05EF9F8
:103B1000002002F05BF9A82002F058F9002002F022
:103B200055F9B92002F052F9002002F04FF9C420F3
:103B300002F04CF9002002F049F9CA2002F046F9DF
:103B4000002002F043F9D22002F040F9002002F0F8
:103B50003DF9D92002F03AF9002002F037F9E020CF
:103B600002F034F9002002F031F9F32002F02EF9CE
:103B7000002002F02BF9E12002F034F9162002F0C7
:103B800025F9002002F022F91C2002F01FF9002084
:103B900002F01CF9222002F019F9002002F016F9B7
:103BA000362002F013F9002002F010F9452002F04F
:103BB0000DF9002002F00AF9522002F007F9002066
:103BC00002F004F9642002F001F9002002F0FEF88E
:103BD0007A2002F0FBF8002002F0F8F88B2002F0C7
:103BE000F5F8002002F0F2F8992002F0EFF800203A
:103BF00002F0ECF8A82002F0E9F8002002F0E6F864
:103C0000B92002F0E3F8002002F0E0F8C42002F04E
:103C1000DDF8002002F0DAF8CA2002F0D7F8002020
:103C200002F0D4F8D22002F0D1F8002002F0CEF851
:103C3000D82002F0CBF8002002F0C8F8E02002F013
:103C4000C5F8002002F0C2F8F32002F0BFF800200F
:103C500002F0BCF8E22002F0C5F8052002F0B6F848
:103C6000002002F0B3F80B2002F0B0F8002002F0C0
:103C7000ADF81B2002F0AAF8002002F0A7F83420CB
:103C800002F0A4F8002002F0A1F8442002F09EF80F
:103C9000002002F09BF84F2002F098F8002002F07C
:103CA00095F8612002F092F8002002F08FF8792058
:103CB00002F08CF8002002F089F8882002F086F8E3
:103CC000002002F083F8972002F080F8002002F034
:103CD0007DF8A62002F07AF8002002F077F8B720ED
:103CE00002F074F8002002F071F8C22002F06EF8C1
:103CF000002002F06BF8C72002F068F8002002F004
:103D000065F8D12002F062F8002002F05FF8D620BA
:103D100002F05CF8002002F059F8DD2002F056F8BD
:103D2000002002F053F8F32002F050F8002002F0D7
:103D30004DF8E32002F056F8052002F047F8002085
:103D400002F044F80A2002F041F8002002F03EF8A8
:103D50001C2002F03BF8002002F038F8332002F07B
:103D600035F8002002F032F8442002F02FF800204D
:103D700002F02CF8502002F029F8002002F026F87A
:103D8000622002F023F8002002F020F8782002F0F0
:103D90001DF8002002F01AF8882002F017F8002021
:103DA00002F014F8972002F011F8002002F00EF84B
:103DB000A62002F00BF8002002F008F8B72002F06D
:103DC00005F8002002F002F8C22001F0FFFF0020F9
:103DD00001F0FCFFC72001F0F9FF002001F0F6FF21
:103DE000D12001F0F3FF002001F0F0FFD52001F019
:103DF000EDFF002001F0EAFFDD2001F0E7FF0020E9
:103E000001F0E4FFF32001F0E1FF002001F0DEFF0C
:103E1000E42001F0E7FF012001F0D8FF002001F0CD
:103E2000D5FF012001F0D2FF002001F0CFFF0220DA
:103E300001F0CCFF002001F0C9FF2A2001F0C6FFED
:103E4000002001F0C3FF3C2001F0C0FF002001F082
:103E5000BDFF4B2001F0BAFF002001F0B7FF5D204D
:103E600001F0B4FF002001F0B1FF742001F0AEFFBB
:103E7000002001F0ABFF842001F0A8FF002001F03A
:103E8000A5FF932001F0A2FF002001F09FFFA220D8
:103E900001F09CFF002001F099FFB32001F096FF94
:103EA000002001F093FFBE2001F090FF002001F000
:103EB0008DFFC42001F08AFF002001F087FFCD2094
:103EC00001F084FF002001F081FFD32001F07EFF8C
:103ED000002001F07BFFDD2001F078FF002001F0E1
:103EE00075FFF32001F072FF002001F06FFFE52065
:103EF00001F078FF002001F069FF002001F066FF6B
:103F0000002001F063FF002001F060FF022001F0BB
:103F10005DFF002001F05AFF292001F057FF00202B
:103F200001F054FF3C2001F051FF002001F04EFF52
:103F30004B2001F04BFF002001F048FF5D2001F015
:103F400045FF002001F042FF742001F03FFF0020F8
:103F500001F03CFF842001F039FF002001F036FF22
:103F6000932001F033FF002001F030FFA22001F088
:103F70002DFF002001F02AFFB32001F027FF0020D1
:103F800001F024FFBE2001F021FF002001F01EFF00
:103F9000C42001F01BFF002001F018FFCD2001F02C
:103FA00015FF002001F012FFD32001F00FFF0020C9
:103FB00001F00CFFDC2001F009FF002001F006FFFA
:103FC000F32001F003FF002001F000FFE62001F0E4
:103FD00009FF112001F0FAFE002001F0F7FE342065
:103FE00001F0F4FE002001F0F1FE562001F0EEFE9B
:103FF000002001F0EBFE762001F0E8FE002001F049
:10400000E5FE772001F0E2FE002001F0DFFE6620F1
:1040100001F0DCFE002001F0D9FE882001F0D6FE80
:10402000002001F0D3FE992001F0D0FE002001F025
:10403000CDFEBB2001F0CAFE002001F0C7FE992092
:1040400001F0C4FE002001F0C1FE662001F0BEFEBA
:10405000002001F0BBFE552001F0B8FE002001F069
:10406000B5FE552001F0B2FE002001F0AFFE452064
:1040700001F0ACFE002001F0A9FE432001F0A6FEF5
:10408000002001F0A3FE442001F0A0FE002001F07A
:104090009DFEE72001F0A6FE322001F097FE0020F1
:1040A00001F094FE552001F091FE002001F08EFEFB
:1040B000762001F08BFE002001F088FE662001F0E2
:1040C00085FE002001F082FE672001F07FFE0020C7
:1040D00001F07CFE672001F079FE002001F076FE01
:1040E000872001F073FE002001F070FE992001F09E
:1040F0006DFE002001F06AFEBB2001F067FE00208B
:1041000001F064FE992001F061FE002001F05EFEE6
:10411000772001F05BFE002001F058FE442001F002
:1041200055FE002001F052FE562001F04FFE002007
:1041300001F04CFE232001F049FE002001F046FE74
:10414000332001F043FE002001F040FE452001F045
:104150003DFE002001F03AFEE82001F043FE002081
:1041600001F034FE002001F031FE992001F02EFE16
:10417000002001F02BFE872001F028FE002001F036
:1041800025FE882001F022FE002001F01FFE77208E
:1041900001F01CFE002001F019FE662001F016FE61
:1041A000002001F013FE882001F010FE002001F035
:1041B0000DFEAA2001F00AFE002001F007FEBB2040
:1041C00001F004FE002001F001FE992001F0FEFD47
:1041D000002001F0FBFD662001F0F8FD002001F059
:1041E000F5FD552001F0F2FD002001F0EFFD552016
:1041F00001F0ECFD002001F0E9FD442001F0E6FDB6
:10420000002001F0E3FD442001F0E0FD002001F07A
:10421000DDFD552001F0DAFD002001F0D7FDE92099
:1042200001F0E0FDAA2001F0D1FD002001F0CEFD5B
:10423000002001F0CBFD002001F0C8FD002001F0BE
:10424000D1FDAA2001F0C2FDCF2001F0CBFD00205E
:1042500001F0BCFD002001F0B9FD002001F0B6FD29
:10426000002001F0B3FD002001F0B0FD002001F0BE
:10427000ADFD002001F0AAFD002001F0A7FD002007
:1042800001F0A4FD002001F0A1FD002001F09EFD41
:10429000002001F09BFD002001F098FD002001F0BE
:1042A00095FD002001F092FD002001F08FFD00201F
:1042B00001F08CFDF02001F095FD002001F086FD5D
:1042C000502001F083FD002001F080FD002001F06E
:1042D0007DFD002001F07AFDF32001F083FD002038
:1042E00001F074FDF92001F07DFD062001F06EFD66
:1042F000102001F06BFD292001F068FD002001F085
:1043000065FD3A2001F06EFD552001F05FFD1120A2
:1043100001F068FD6420FCF79BFB292001F062FDA1
:10432000352001F05FFD002001F050FD512001F02B
:1043300059FDFF2001F04AFD532001F053FD2C20D0
:1043400001F044FD552001F04DFD822001F03EFDBD
:10435000BDE810402C2001F045BD2DE9F05F4FF481
:1043600070435521184601F053FD4FF20104AA2174
:10437000204601F04DFD651C5221284601F048FD04
:10438000A61C0821304601F043FDE71C01213846F8
:1043900001F03EFD0D214FF4304001F039FD0D21BB
:1043A0004BF2010001F034FD0D214BF2020001F04F
:1043B0002FFD4FF436483421404601F029FD3421C9
:1043C0004BF2016001F024FD34214BF2026001F058
:1043D0001FFD4FF431490D21484601F019FD4BF204
:1043E000011A0D21504601F013FD0D214BF2021070
:1043F00001F00EFD4FF4374B3421584601F008FD13
:1044000034214BF2017001F003FD34214BF20270B4
:1044100001F0FEFC00214FF4324001F0F9FC0021D4
:104420004BF2012001F0F4FC00214BF2022001F0DC
:10443000EFFC24214FF4384001F0EAFC24214BF634
:10444000010001F0E5FC24214BF6020001F0E0FC44
:1044500001214FF43F4001F0DBFC0F214FF43340CA
:1044600001F0D6FC0F214BF2013001F0D1FC0F21FD
:104470004BF2023001F0CCFC34214FF4394001F012
:10448000C7FC34214BF6011001F0C2FC34214BF67D
:10449000021001F0BDFC08214FF4354001F0B8FCDA
:1044A00008214BF2015001F0B3FC08214BF20250FD
:1044B00001F0AEFC03214FF4424001F0A9FC24219D
:1044C0004FF43A4001F0A4FC24214BF6012001F006
:1044D0009FFC24214BF6022001F09AFC00214FF4AE
:1044E0003C4001F095FC78214BF6014001F090FC36
:1044F00000214BF6024001F08BFC00214FF43D40BF
:1045000001F086FC78214BF6015001F081FC00217E
:104510004BF6025001F07CFC00214FF43E4001F0CC
:1045200077FC64214BF6016001F072FC00214FF42E
:10453000514001F06DFC33214DF2011001F068FC97
:1045400000214DF2021001F063FC34214DF2031002
:1045500001F05EFC00214DF2041001F059FC3A21FB
:104560004DF2051001F054FC00214DF2061001F04F
:104570004FFC4A214DF2071001F04AFC00214DF298
:10458000081001F045FC5C214DF2091001F040FCDF
:1045900000214DF20A1001F03BFC81214DF20B107D
:1045A00001F036FC00214DF20C1001F031FCA62187
:1045B0004DF20D1001F02CFC00214DF20E1001F017
:1045C00027FCE5214DF20F1001F022FC01214DF2F4
:1045D000101001F01DFC13214DF2111001F018FC18
:1045E00001214DF2121001F013FC54214DF2131071
:1045F00001F00EFC01214DF2141001F009FC8221A2
:104600004DF2151001F004FC01214DF2161001F0DD
:10461000FFFBCA214DF2171001F0FAFB02214DF207
:10462000181001F0F5FB00214DF2191001F0F0FB1C
:1046300002214DF21A1001F0EBFB01214DF21B108B
:1046400001F0E6FB02214DF21C1001F0E1FB3421E8
:104650004DF21D1001F0DCFB02214DF21E1001F0A5
:10466000D7FB67214DF21F1001F0D2FB02214DF262
:10467000201001F0CDFB84214DF2211001F0C8FB88
:1046800002214DF2221001F0C3FBA4214DF22310B0
:1046900001F0BEFB02214DF2241001F0B9FBB7215D
:1046A0004DF2251001F0B4FB02214DF2261001F06D
:1046B000AFFBCF214DF2271001F0AAFB02214DF2F2
:1046C000281001F0A5FBDE214DF2291001F0A0FB1E
:1046D00002214DF22A1001F09BFBF2214DF22B102A
:1046E00001F096FB02214DF22C1001F091FBFE210E
:1046F0004DF22D1001F08CFB03214DF22E1001F034
:1047000087FB10214DF22F1001F082FB03214DF2A7
:10471000301001F07DFB33214DF2311001F078FBB8
:1047200003214DF2321001F073FB6D214DF2331075
:1047300001F06EFB00214FF4524001F069FB332180
:104740004DF2012001F064FB00214DF2022001F046
:104750005FFB34214DF2032001F05AFB00214DF2A2
:10476000042001F055FB3A214DF2052001F050FBE9
:1047700000214DF2062001F04BFB4A214DF20720AB
:1047800001F046FB00214DF2082001F041FB5C21C5
:104790004DF2092001F03CFB00214DF20A2001F00E
:1047A00037FB81214DF20B2001F032FB00214DF24D
:1047B0000C2001F02DFBA6214DF20D2001F028FB6D
:1047C00000214DF20E2001F023FBE5214DF20F20D8
:1047D00001F01EFB01214DF2102001F019FB132105
:1047E0004DF2112001F014FB01214DF2122001F0D5
:1047F0000FFB54214DF2132001F00AFB01214DF271
:10480000142001F005FB82214DF2152001F000FB80
:1048100001214DF2162001F0FBFACA214DF21720BA
:1048200001F0F6FA02214DF2182001F0F1FA002110
:104830004DF2192001F0ECFA02214DF21A2001F09C
:10484000E7FA01214DF21B2001F0E2FA02214DF2BC
:104850001C2001F0DDFA34214DF21D2001F0D8FAC0
:1048600002214DF21E2001F0D3FA67214DF21F20E4
:1048700001F0CEFA02214DF2202001F0C9FA842184
:104880004DF2212001F0C4FA02214DF2222001F064
:10489000BFFAA4214DF2232001F0BAFA02214DF211
:1048A000242001F0B5FAB7214DF2252001F0B0FA2D
:1048B00002214DF2262001F0ABFACF214DF2272044
:1048C00001F0A6FA02214DF2282001F0A1FADE2122
:1048D0004DF2292001F09CFA02214DF22A2001F02C
:1048E00097FAF2214DF22B2001F092FA02214DF2BB
:1048F0002C2001F08DFAFE214DF22D2001F088FAD6
:1049000003214DF22E2001F083FA10214DF22F20C9
:1049100001F07EFA03214DF2302001F079FA3321C3
:104920004DF2312001F074FA03214DF2322001F0F2
:104930006FFA6D214DF2332001F06AFA00214FF435
:10494000534001F065FA33214DF2013001F060FA75
:1049500000214DF2023001F05BFA34214DF20330B8
:1049600001F056FA00214DF2043001F051FA3A21DB
:104970004DF2053001F04CFA00214DF2063001F005
:1049800047FA4A214DF2073001F042FA00214DF278
:10499000083001F03DFA5C214DF2093001F038FA9F
:1049A00000214DF20A3001F033FA81214DF20B3033
:1049B00001F02EFA00214DF20C3001F029FAA62167
:1049C0004DF20D3001F024FA00214DF20E3001F0CD
:1049D0001FFAE5214DF20F3001F01AFA01214DF2D4
:1049E000103001F015FA13214DF2113001F010FAD8
:1049F00001214DF2123001F00BFA54214DF2133027
:104A000001F006FA01214DF2143001F001FA822181
:104A10004DF2153001F0FCF901214DF2163001F094
:104A2000F7F9CA214DF2173001F0F2F902214DF2E7
:104A3000183001F0EDF900214DF2193001F0E8F9DC
:104A400002214DF21A3001F0E3F901214DF21B3041
:104A500001F0DEF902214DF21C3001F0D9F93421C8
:104A60004DF21D3001F0D4F902214DF21E3001F05B
:104A7000CFF967214DF21F3001F0CAF902214DF242
:104A8000203001F0C5F984214DF2213001F0C0F948
:104A900002214DF2223001F0BBF9A4214DF2233066
:104AA00001F0B6F902214DF2243001F0B1F9B7213D
:104AB0004DF2253001F0ACF902214DF2263001F023
:104AC000A7F9CF214DF2273001F0A2F902214DF2D2
:104AD000283001F09DF9DE214DF2293001F098F9DE
:104AE00002214DF22A3001F093F9F2214DF22B30E0
:104AF00001F08EF902214DF22C3001F089F9FE21EE
:104B00004DF22D3001F084F903214DF22E3001F0E9
:104B10007FF910214DF22F3001F07AF903214DF287
:104B2000303001F075F933214DF2313001F070F978
:104B300003214DF2323001F06BF96D214DF233302B
:104B400001F066F900214FF4544001F061F933217E
:104B50004DF2014001F05CF900214DF2024001F0FC
:104B600057F934214DF2034001F052F900214DF282
:104B7000044001F04DF93A214DF2054001F048F9A9
:104B800000214DF2064001F043F94A214DF2074061
:104B900001F03EF900214DF2084001F039F95C21A5
:104BA0004DF2094001F034F900214DF20A4001F0C4
:104BB0002FF981214DF20B4001F02AF900214DF22D
:104BC0000C4001F025F9A6214DF20D4001F020F92D
:104BD00000214DF20E4001F01BF9E5214DF20F408E
:104BE00001F016F901214DF2104001F011F91321E5
:104BF0004DF2114001F00CF901214DF2124001F08B
:104C000007F954214DF2134001F002F901214DF250
:104C1000144001F0FDF882214DF2154001F0F8F842
:104C200001214DF2164001F0F3F8CA214DF2174070
:104C300001F0EEF802214DF2184001F0E9F80021F0
:104C40004DF2194001F0E4F802214DF21A4001F052
:104C5000DFF801214DF21B4001F0DAF802214DF29C
:104C60001C4001F0D5F834214DF21D4001F0D0F880
:104C700002214DF21E4001F0CBF867214DF21F409A
:104C800001F0C6F802214DF2204001F0C1F8842164
:104C90004DF2214001F0BCF802214DF2224001F01A
:104CA000B7F8A4214DF2234001F0B2F802214DF2F1
:104CB000244001F0ADF8B7214DF2254001F0A8F8ED
:104CC00002214DF2264001F0A3F8CF214DF22740FA
:104CD00001F09EF802214DF2284001F099F8DE2102
:104CE0004DF2294001F094F802214DF22A4001F0E2
:104CF0008FF8F2214DF22B4001F08AF802214DF29B
:104D00002C4001F085F8FE214DF22D4001F080F895
:104D100003214DF22E4001F07BF810214DF22F407F
:104D200001F076F803214DF2304001F071F83321A3
:104D30004DF2314001F06CF803214DF2324001F0A8
:104D400067F86D214DF2334001F062F800214FF415
:104D5000554001F05DF833214DF2015001F058F853
:104D600000214DF2025001F053F834214DF203506E
:104D700001F04EF800214DF2045001F049F83A21BB
:104D80004DF2055001F044F800214DF2065001F0BB
:104D90003FF84A214DF2075001F03AF800214DF258
:104DA000085001F035F85C214DF2095001F030F85F
:104DB00000214DF20A5001F02BF881214DF20B50E9
:104DC00001F026F800214DF20C5001F021F8A62147
:104DD0004DF20D5001F01CF800214DF20E5001F083
:104DE00017F8E5214DF20F5001F012F801214DF2B4
:104DF000105001F00DF813214DF2115001F008F898
:104E000001214DF2125001F003F854214DF21350DC
:104E100000F0FEFF01214DF2145000F0F9FF822155
:104E20004DF2155000F0F4FF01214DF2165000F044
:104E3000EFFFCA214DF2175000F0EAFF02214DF2B8
:104E4000185000F0E5FF00214DF2195000F0E0FF8E
:104E500002214DF21A5000F0DBFF01214DF21B50F0
:104E600000F0D6FF02214DF21C5000F0D1FF34219A
:104E70004DF21D5000F0CCFF02214DF21E5000F00B
:104E8000C7FF67214DF21F5000F0C2FF02214DF213
:104E9000205000F0BDFF84214DF2215000F0B8FFFA
:104EA00002214DF2225000F0B3FFA4214DF2235015
:104EB00000F0AEFF02214DF2245000F0A9FFB7210F
:104EC0004DF2255000F0A4FF02214DF2265000F0D3
:104ED0009FFFCF214DF2275000F09AFF02214DF2A3
:104EE000285000F095FFDE214DF2295000F090FF90
:104EF00002214DF22A5000F08BFFF2214DF22B508F
:104F000000F086FF02214DF22C5000F081FFFE21BF
:104F10004DF22D5000F07CFF03214DF22E5000F099
:104F200077FF10214DF22F5000F072FF03214DF258
:104F3000305000F06DFF33214DF2315000F068FF2A
:104F400003214DF2325000F063FF6D214DF23350DA
:104F500000F05EFF00214FF4564000F059FF33216E
:104F60004DF2016000F054FF00214DF2026000F0AC
:104F70004FFF34214DF2036000F04AFF00214DF253
:104F8000046000F045FF3A214DF2056000F040FF5B
:104F900000214DF2066000F03BFF4A214DF2076010
:104FA00000F036FF00214DF2086000F031FF5C2177
:104FB0004DF2096000F02CFF00214DF20A6000F074
:104FC00027FF81214DF20B6000F022FF00214DF2FE
:104FD0000C6000F01DFFA6214DF20D6000F018FFDF
:104FE00000214DF20E6000F013FFE5214DF20F603D
:104FF00000F00EFF01214DF2106000F009FF1321B7
:105000004DF2116000F004FF01214DF2126000F03A
:10501000FFFE54214DF2136000F0FAFE01214DF223
:10502000146000F0F5FE82214DF2156000F0F0FEF4
:1050300001214DF2166000F0EBFECA214DF217601F
:1050400000F0E6FE02214DF2186000F0E1FE0021C2
:105050004DF2196000F0DCFE02214DF21A6000F002
:10506000D7FE01214DF21B6000F0D2FE02214DF26D
:105070001C6000F0CDFE34214DF21D6000F0C8FE32
:1050800002214DF21E6000F0C3FE67214DF21F6049
:1050900000F0BEFE02214DF2206000F0B9FE842136
:1050A0004DF2216000F0B4FE02214DF2226000F0CA
:1050B000AFFEA4214DF2236000F0AAFE02214DF2C2
:1050C000246000F0A5FEB7214DF2256000F0A0FE9F
:1050D00002214DF2266000F09BFECF214DF22760A9
:1050E00000F096FE02214DF2286000F091FEDE21D4
:1050F0004DF2296000F08CFE02214DF22A6000F092
:1051000087FEF2214DF22B6000F082FE02214DF26B
:105110002C6000F07DFEFE214DF22D6000F078FE47
:1051200003214DF22E6000F073FE10214DF22F602E
:1051300000F06EFE03214DF2306000F069FE332175
:105140004DF2316000F064FE03214DF2326000F058
:105150005FFE6D214DF2336000F05AFE5521184676
:1051600000F056FEAA21204600F052FE52212846A9
:1051700000F04EFE0821304600F04AFE002138467D
:1051800000F046FECC21484600F042FE0021504689
:1051900000F03EFE0521404600F03AFE70215846E0
:1051A00000F036FE70214BF2017000F031FE01215B
:1051B0004FF4384000F02CFE03214BF6010000F0C4
:1051C00027FE03214BF6020000F022FE03214BF6DE
:1051D000030000F01DFE02214FF43C4000F018FED9
:1051E00000214BF6014000F013FE00214BF6024077
:1051F00000F00EFED0214FF4494000F009FE0221DC
:105200004CF6011000F004FE50214CF6021000F0A4
:10521000FFFD50214CF6031000F0FAFD50214CF632
:10522000041000F0F5FD00214FF4545000F0F0FDA3
:1052300055214FF4685000F0EBFD4FF4885000F01A
:10524000D1FD0120FBF704FCBDE8F05F4FF42450D2
:1052500000F0C8BD10B5E22000F0C4FD1D2000F034
:10526000B5FD022000F0B2FD042000F0AFFD0120EA
:10527000FBF7EEFBE02000F0B5FD012000F0A6FDFD
:105280000A20FBF7E5FBE02000F0ACFD032000F076
:105290009DFD0C20FBF7DCFB012000F0A3FD0A20A4
:1052A000FBF7D6FBE62000F09DFD2F2000F08EFDE1
:1052B000FF2000F08BFDFF2000F088FDB02000F003
:1052C00091FD202000F082FD002000F07FFD0320F2
:1052D00000F07CFD40F21F3000F078FD012000F06E
:1052E00075FD40F2DF1000F071FD002000F06EFD52
:1052F000B42000F077FD042000F068FD40F21F406C
:1053000000F064FD002000F061FD2E2000F05EFD45
:10531000002000F05BFD002000F058FD002000F0B0
:1053200055FD002000F052FDB62000F05BFD02208C
:1053300000F04CFD4FF4037000F048FD002000F039
:1053400045FD172000F042FD152000F03FFD002034
:1053500000F03CFD002000F039FDF02000F042FD9F
:10536000032000F033FD292000F03CFDD02000F0A8
:1053700039FD002000F02AFDBE2000F033FD05209D
:1053800000F024FDFE2000F021FD012000F01EFDB4
:10539000002000F01BFD002000F018FD002000F0B0
:1053A00015FDB82000F01EFD032000F00FFD0120C8
:1053B00000F00CFDBA2000F015FDBDE81040012002
:1053C00000F004BD10B5112000F00CFD7820FBF7B3
:1053D0003FFB362000F006FD002000F0F7FC3A20ED
:1053E00000F000FD052000F0F1FCB22000F0FAFC16
:1053F0000C2000F0EBFC0C2000F0E8FC002000F09A
:10540000E5FC332000F0E2FC332000F0DFFCB720A5
:1054100000F0E8FC352000F0D9FCBB2000F0E2FCF5
:10542000322000F0D3FCC02000F0DCFC0C2000F0A7
:10543000CDFCC22000F0D6FC012000F0C7FCC32048
:1054400000F0D0FC102000F0C1FCC42000F0CAFC29
:10545000202000F0BBFCC62000F0C4FC0F2000F0B0
:10546000B5FCD02000F0BEFCA42000F0AFFCA120D1
:1054700000F0ACFCE02000F0B5FCD02000F0A6FC71
:10548000002000F0A3FC022000F0A0FC072000F0A8
:105490009DFC0A2000F09AFC282000F097FC3220A6
:1054A00000F094FC442000F091FC422000F08EFCBF
:1054B000062000F08BFC0E2000F088FC122000F08B
:1054C00085FC142000F082FC172000F07FFCE12016
:1054D00000F088FCD02000F079FC002000F076FC81
:1054E000022000F073FC072000F070FC0A2000F09E
:1054F0006DFC282000F06AFC312000F067FC54208D
:1055000000F064FC472000F061FC0E2000F05EFC1F
:105510001C2000F05BFC172000F058FC1B2000F062
:1055200055FC1E2000F052FC2A2000F05BFC0020FD
:1055300000F04CFC002000F049FC002000F046FC8C
:10554000EF2000F043FC2B2000F04CFC002000F08A
:105550003DFC002000F03AFC012000F037FC3F2029
:1055600000F034FCBDE81040292000F03BBC10B531
:10557000112000F037FC7820FBF76AFA362000F0A3
:1055800031FC482000F022FC3A2000F02BFC552092
:1055900000F01CFCF02000F025FCC32000F016FCFD
:1055A000F02000F01FFC962000F010FCB42000F06A
:1055B00019FC012000F00AFCB62000F013FC0A20C0
:1055C00000F004FCA22000F001FCB72000F00AFC6F
:1055D000C62000F0FBFBB92000F004FC022000F024
:1055E000F5FBE02000F0F2FBC02000F0FBFB802088
:1055F00000F0ECFB162000F0E9FBC12000F0F2FB0C
:10560000192000F0E3FBC22000F0ECFBA72000F023
:10561000DDFBC52000F0E6FB162000F0D7FBE820FC
:1056200000F0E0FB402000F0D1FB8A2000F0CEFB30
:10563000002000F0CBFB002000F0C8FB292000F088
:10564000C5FB192000F0C2FBA52000F0BFFB3320F2
:1056500000F0BCFBE02000F0C5FBF02000F0B6FB42
:10566000072000F0B3FB0D2000F0B0FB042000F099
:10567000ADFB052000F0AAFB142000F0A7FB3620AC
:1056800000F0A4FB542000F0A1FB4C2000F09EFB96
:10569000382000F09BFB132000F098FB142000F052
:1056A00095FB2E2000F092FB342000F08FFBE120D0
:1056B00000F098FBF02000F089FB102000F086FB42
:1056C000142000F083FB0E2000F080FB0C2000F083
:1056D0007DFB082000F07AFB352000F077FB4420AA
:1056E00000F074FB4C2000F071FB262000F06EFBF4
:1056F000102000F06BFB122000F068FB2C2000F063
:1057000065FB322000F062FBF02000F06BFB3C20D8
:1057100000F05CFBF02000F065FB692000F056FB18
:105720007820FBF795F9212000F05CFBBDE81040E4
:10573000292000F057BB00002DE9F04F87B0322040
:10574000FBF786F9D32000F04DFB00F033F9944CC1
:10575000A08000F02FF9A08000F02CF94FF6FF7127
:1057600001EA0020A08000F025F9A18849F2413625
:105770000843A08047F2897545F2103747F29678C2
:1057800045F2105949F6060A41F6631BB0427DD036
:10579000042000F027FB00F00DF9A08000F00AF9CA
:1057A000A08000F007F94FF6FF7101EA0020A08009
:1057B00000F000F9A1880843A0F50541A080523906
:1057C00065D0A84262D0D42000F00CFB00F0F2F8C3
:1057D000A08000F0EFF8A08000F0ECF84FF6FF7129
:1057E00001EA0020A08000F0E5F8A1880843A0802D
:1057F000B8427ED0D32000F0F5FA00F0DBF8A080AC
:1058000000F0D8F8A08000F0D5F84FF6FF7101EA5B
:105810000020A08000F0CEF8A1880843A080404579
:1058200067D055214FF4704000F0F2FAAA214FF2F0
:10583000010000F0EDFA52214FF2020000F0E8FA08
:1058400008214FF2030000F0E3FA01214FF20400B7
:1058500000F0DEFA4FF4454000F0C4FA00F0AAF878
:105860004FF6FF7101EA0020A0804CF2015000F0D9
:10587000B9FA00F09FF8A1880843A0800520FBF743
:10588000E7F8A188494534D0D32001E02CE02CE092
:1058900000F0A8FA00F08EF8A08000F08BF8A0804D
:1058A00000F088F84FF6FF7101EA0020A08000F0B8
:1058B00081F8A1880843A08050451AD0A12000F0AB
:1058C00091FA00F077F8A08000F074F84FF6FF71BD
:1058D00001EA0020A08000F06DF8A1880843A0F53F
:1058E000AE41A080613902D003E0A58001E0A4F8B8
:1058F00004B0A1882BA0FCF7A3FDA088A84202D188
:10590000FFF760FD1FE0B04202D1FDF7F4FA1AE0A4
:10591000B84202D1FDF7A7FD15E0404502D1FFF7DF
:1059200026FE10E0484502D1FEF717FD0BE050457A
:1059300002D1FDF7F7FB06E0584504D1FFF78AFCDA
:10594000642000F01BFA1648A1885038A94201D102
:1059500003210EE0514503D0B14201D0494501D1A8
:10596000022106E0B94203D0414501D0594508D192
:10597000012100910291036B826840686946FAF741
:1059800097FF0020FDF736FA0122D1030848FBF704
:10599000C2F94FF6FF70FDF715FA07B0BDE8F08FBA
:1059A000B00000204C43442049443A25780D0A00B9
:1059B0000004024008B50220401EFDD24FF0D8403E
:1059C000B0F88000ADF80000BDF8000008BD000090
:1059D00070B55F4C00232146A279898841F6631691
:1059E000012A01D01AB10CE0B14202D109E0B14262
:1059F00007D1082805D2DFE800F0161812140C1998
:105A0000100E082812D2DFE800F0110406080A0C74
:105A10000E1080230AE0402308E0C02306E0202384
:105A200004E0602302E0A02300E0E023362045F2FA
:105A30001055A94200D10002A1F51342413A07D006
:105A4000A1F5EE42893A03D0A1F5EE42963A01D192
:105A500043F00803194600F0DBF9A188B1420AD0EF
:105A600098062088628802D5904202D303E09042D3
:105A700001D9228060806089A94240D100F0B2F94A
:105A8000002000F0A3F96089401C80B200F0AAF960
:105A9000002000F09BF96089801C80B200F0A2F920
:105AA0002088401EC0F30F2000F090F96089C01CD0
:105AB00080B200F097F92078401EC0B200F086F95D
:105AC000A08900F08FF9002000F080F9A089401C27
:105AD00080B200F087F9002000F078F9A089801CDE
